:100000000C9446000C945D000C945D000C945D0013
:100010000C945D000C945D000C945D000C945D00EC
:100020000C945D000C945D000C945D000C945D00DC
:100030000C945D000C945D000C945D000C945D00CC
:100040000C945D000C945D000C945D000C945D00BC
:100050000C945D000C945D000C945D000C945D00AC
:100060000C945D000C945D000C945D000C945D009C
:100070000C945D000C945D000C945D000C945D008C
:100080000C945D000C945D000C945D0011241FBE67
:10009000CFEFD0E4DEBFCDBF11E0A0E0B1E0E8E9F2
:1000A000F1E000E00BBF02C007900D92AE30B10747
:1000B000D9F70E9488000C94CA000C940000CF93DA
:1000C000DF9300D01F92CDB7DEB789837B836A832D
:1000D00089818A3031F48A819B81BC018DE00E9444
:1000E0005F0080EC90E0FC018081882F90E08072BE
:1000F00099270097B1F386EC90E02981FC012083D9
:1001000080E090E00F900F900F90DF91CF910895D5
:10011000CF93DF9300D01F92CDB7DEB781E290E09E
:10012000FC01108282E290E02FEFFC01208387E245
:1001300090E02FEFFC01208388E290E0FC01108228
:1001400019821A821B8280E290E0FC0180818983FF
:100150001A821B8210C08981882F90E081709927B4
:10016000009719F48A818F5F8A83898186958983B4
:100170008B818F5F8B838B81843068F38A818823A6
:1001800019F48A8180688A8388E290E02A81FC01E0
:080190002083D9CFF894FFCFC2
:0E01980000000002000000005F0000000000F8
:00000001FF
