:100000000C9446000C945D000C945D000C945D0013
:100010000C945D000C945D000C945D000C945D00EC
:100020000C945D000C945D000C945D000C945D00DC
:100030000C945D000C945D000C945D000C945D00CC
:100040000C945D000C945D000C945D000C945D00BC
:100050000C945D000C945D000C945D000C945D00AC
:100060000C945D000C945D000C945D000C945D009C
:100070000C945D000C945D000C945D000C945D008C
:100080000C945D000C945D000C945D0011241FBE67
:10009000CFEFD0E4DEBFCDBF11E0A0E0B1E0EAEFEA
:1000A000F1E000E00BBF02C007900D92AE30B10747
:1000B000D9F70E9488000C94FB000C940000CF93A9
:1000C000DF9300D01F92CDB7DEB789837B836A832D
:1000D00089818A3031F48A819B81BC018DE00E9444
:1000E0005F0080EC90E0FC018081882F90E08072BE
:1000F00099270097B1F386EC90E02981FC012083D9
:1001000080E090E00F900F900F90DF91CF910895D5
:10011000CF93DF9300D000D01F92CDB7DEB781E23E
:1001200090E0FC01108282E290E02FEFFC0120833E
:1001300084E290E0FC01108285E290E02FEFFC0168
:10014000208387E290E0FC01108288E290E02FEFAC
:10015000FC0120838AE290E02FEFFC0120838BE2F8
:1001600090E0FC01108219821A821B821C821D827F
:1001700086E290E0FC0180818A8383E290E0FC01CA
:1001800080818B8380E290E0FC0180818C839A8166
:100190008B81980F8C81890F8D838D8186958695B3
:1001A0008C7F89838D818D3818F089818160898366
:1001B0008C81282F30E08A81882F90E0A901481B8C
:1001C000590BCA01813591056CF48A81282F30E0E2
:1001D0008C81882F90E0F901E81BF90BCF01813564
:1001E00091051CF08981826089838BE290E02981EE
:0A01F000FC012083BDCFF894FFCF7F
:0E01FA0000000002000000005F000000000096
:00000001FF
